{
  "_format": "hh-sol-artifact-1",
  "contractName": "token2",
  "sourceName": "contracts/test2.sol",
  "abi": [
    {
      "inputs": [],
      "stateMutability": "nonpayable",
      "type": "constructor"
    },
    {
      "anonymous": false,
      "inputs": [
        {
          "indexed": true,
          "internalType": "address",
          "name": "previousOwner",
          "type": "address"
        },
        {
          "indexed": true,
          "internalType": "address",
          "name": "newOwner",
          "type": "address"
        }
      ],
      "name": "OwnershipTransferred",
      "type": "event"
    },
    {
      "inputs": [],
      "name": "Name",
      "outputs": [
        {
          "internalType": "string",
          "name": "",
          "type": "string"
        }
      ],
      "stateMutability": "view",
      "type": "function"
    },
    {
      "inputs": [
        {
          "internalType": "address",
          "name": "ownwer_",
          "type": "address"
        },
        {
          "internalType": "address",
          "name": "spender_",
          "type": "address"
        }
      ],
      "name": "allowance",
      "outputs": [
        {
          "internalType": "uint256",
          "name": "remaining",
          "type": "uint256"
        }
      ],
      "stateMutability": "view",
      "type": "function"
    },
    {
      "inputs": [
        {
          "internalType": "address",
          "name": "spender_",
          "type": "address"
        },
        {
          "internalType": "uint256",
          "name": "value_",
          "type": "uint256"
        }
      ],
      "name": "approve",
      "outputs": [
        {
          "internalType": "bool",
          "name": "success",
          "type": "bool"
        }
      ],
      "stateMutability": "nonpayable",
      "type": "function"
    },
    {
      "inputs": [
        {
          "internalType": "address",
          "name": "tokenOwner",
          "type": "address"
        }
      ],
      "name": "balanceOf",
      "outputs": [
        {
          "internalType": "uint256",
          "name": "",
          "type": "uint256"
        }
      ],
      "stateMutability": "view",
      "type": "function"
    },
    {
      "inputs": [],
      "name": "decimal",
      "outputs": [
        {
          "internalType": "uint256",
          "name": "",
          "type": "uint256"
        }
      ],
      "stateMutability": "view",
      "type": "function"
    },
    {
      "inputs": [
        {
          "internalType": "address",
          "name": "spender_",
          "type": "address"
        },
        {
          "internalType": "uint256",
          "name": "subtractedValue",
          "type": "uint256"
        }
      ],
      "name": "decreaseAllowance",
      "outputs": [
        {
          "internalType": "bool",
          "name": "",
          "type": "bool"
        }
      ],
      "stateMutability": "nonpayable",
      "type": "function"
    },
    {
      "inputs": [
        {
          "internalType": "address",
          "name": "spender_",
          "type": "address"
        },
        {
          "internalType": "uint256",
          "name": "addedValue",
          "type": "uint256"
        }
      ],
      "name": "increaseAllowance",
      "outputs": [
        {
          "internalType": "bool",
          "name": "",
          "type": "bool"
        }
      ],
      "stateMutability": "nonpayable",
      "type": "function"
    },
    {
      "inputs": [
        {
          "internalType": "address",
          "name": "reciever",
          "type": "address"
        },
        {
          "internalType": "uint256",
          "name": "quantity",
          "type": "uint256"
        }
      ],
      "name": "mint",
      "outputs": [
        {
          "internalType": "uint256",
          "name": "",
          "type": "uint256"
        }
      ],
      "stateMutability": "nonpayable",
      "type": "function"
    },
    {
      "inputs": [],
      "name": "symbol",
      "outputs": [
        {
          "internalType": "string",
          "name": "",
          "type": "string"
        }
      ],
      "stateMutability": "view",
      "type": "function"
    },
    {
      "inputs": [],
      "name": "totalSupply",
      "outputs": [
        {
          "internalType": "uint256",
          "name": "",
          "type": "uint256"
        }
      ],
      "stateMutability": "view",
      "type": "function"
    },
    {
      "inputs": [
        {
          "internalType": "address",
          "name": "reciever",
          "type": "address"
        },
        {
          "internalType": "uint256",
          "name": "numTokens",
          "type": "uint256"
        }
      ],
      "name": "transfer",
      "outputs": [
        {
          "internalType": "bool",
          "name": "",
          "type": "bool"
        }
      ],
      "stateMutability": "nonpayable",
      "type": "function"
    },
    {
      "inputs": [
        {
          "internalType": "address",
          "name": "_from",
          "type": "address"
        },
        {
          "internalType": "address",
          "name": "_to",
          "type": "address"
        },
        {
          "internalType": "uint256",
          "name": "value_",
          "type": "uint256"
        }
      ],
      "name": "transferFrom",
      "outputs": [
        {
          "internalType": "bool",
          "name": "success",
          "type": "bool"
        }
      ],
      "stateMutability": "nonpayable",
      "type": "function"
    },
    {
      "inputs": [
        {
          "internalType": "address",
          "name": "newOwner",
          "type": "address"
        }
      ],
      "name": "transferOwnership",
      "outputs": [],
      "stateMutability": "nonpayable",
      "type": "function"
    }
  ],
  "bytecode": "0x60806040523480156200001157600080fd5b506040518060400160405280600581526020017f7465737431000000000000000000000000000000000000000000000000000000815250600090805190602001906200005f929190620000fd565b506040518060400160405280600281526020017f743100000000000000000000000000000000000000000000000000000000000081525060019080519060200190620000ad929190620000fd565b50600860028190555033600360006101000a81548173ffffffffffffffffffffffffffffffffffffffff021916908373ffffffffffffffffffffffffffffffffffffffff16021790555062000212565b8280546200010b90620001ad565b90600052602060002090601f0160209004810192826200012f57600085556200017b565b82601f106200014a57805160ff19168380011785556200017b565b828001600101855582156200017b579182015b828111156200017a5782518255916020019190600101906200015d565b5b5090506200018a91906200018e565b5090565b5b80821115620001a95760008160009055506001016200018f565b5090565b60006002820490506001821680620001c657607f821691505b60208210811415620001dd57620001dc620001e3565b5b50919050565b7f4e487b7100000000000000000000000000000000000000000000000000000000600052602260045260246000fd5b61117180620002226000396000f3fe608060405234801561001057600080fd5b50600436106100cf5760003560e01c806376809ce31161008c578063a457c2d711610066578063a457c2d71461023c578063a9059cbb1461026c578063dd62ed3e1461029c578063f2fde38b146102cc576100cf565b806376809ce3146101e25780638052474d1461020057806395d89b411461021e576100cf565b8063095ea7b3146100d457806318160ddd1461010457806323b872dd14610122578063395093511461015257806340c10f191461018257806370a08231146101b2575b600080fd5b6100ee60048036038101906100e99190610dda565b6102e8565b6040516100fb9190610ed3565b60405180910390f35b61010c610375565b6040516101199190610f30565b60405180910390f35b61013c60048036038101906101379190610d8b565b61037f565b6040516101499190610ed3565b60405180910390f35b61016c60048036038101906101679190610dda565b6105a4565b6040516101799190610ed3565b60405180910390f35b61019c60048036038101906101979190610dda565b6106d2565b6040516101a99190610f30565b60405180910390f35b6101cc60048036038101906101c79190610d26565b61074e565b6040516101d99190610f30565b60405180910390f35b6101ea610797565b6040516101f79190610f30565b60405180910390f35b61020861079d565b6040516102159190610eee565b60405180910390f35b61022661082b565b6040516102339190610eee565b60405180910390f35b61025660048036038101906102519190610dda565b6108b9565b6040516102639190610ed3565b60405180910390f35b61028660048036038101906102819190610dda565b6109e7565b6040516102939190610ed3565b60405180910390f35b6102b660048036038101906102b19190610d4f565b610aeb565b6040516102c39190610f30565b60405180910390f35b6102e660048036038101906102e19190610d26565b610b72565b005b600081600560003373ffffffffffffffffffffffffffffffffffffffff1673ffffffffffffffffffffffffffffffffffffffff16815260200190815260200160002060008573ffffffffffffffffffffffffffffffffffffffff1673ffffffffffffffffffffffffffffffffffffffff168152602001908152602001600020819055506001905092915050565b6000600654905090565b600080600560008673ffffffffffffffffffffffffffffffffffffffff1673ffffffffffffffffffffffffffffffffffffffff16815260200190815260200160002060003373ffffffffffffffffffffffffffffffffffffffff1673ffffffffffffffffffffffffffffffffffffffff16815260200190815260200160002054905082600460008773ffffffffffffffffffffffffffffffffffffffff1673ffffffffffffffffffffffffffffffffffffffff16815260200190815260200160002054101580156104505750828110155b61045957600080fd5b82600460008673ffffffffffffffffffffffffffffffffffffffff1673ffffffffffffffffffffffffffffffffffffffff16815260200190815260200160002060008282546104a89190610f67565b9250508190555082600460008773ffffffffffffffffffffffffffffffffffffffff1673ffffffffffffffffffffffffffffffffffffffff16815260200190815260200160002060008282546104fe9190610fbd565b9250508190555082600560008773ffffffffffffffffffffffffffffffffffffffff1673ffffffffffffffffffffffffffffffffffffffff16815260200190815260200160002060003373ffffffffffffffffffffffffffffffffffffffff1673ffffffffffffffffffffffffffffffffffffffff16815260200190815260200160002060008282546105919190610fbd565b9250508190555060019150509392505050565b6000600360009054906101000a900473ffffffffffffffffffffffffffffffffffffffff1673ffffffffffffffffffffffffffffffffffffffff163373ffffffffffffffffffffffffffffffffffffffff1614610636576040517f08c379a000000000000000000000000000000000000000000000000000000000815260040161062d90610f10565b60405180910390fd5b6106c78383600560003373ffffffffffffffffffffffffffffffffffffffff1673ffffffffffffffffffffffffffffffffffffffff16815260200190815260200160002060008773ffffffffffffffffffffffffffffffffffffffff1673ffffffffffffffffffffffffffffffffffffffff168152602001908152602001600020546106c29190610f67565b6102e8565b506001905092915050565b600081600460008573ffffffffffffffffffffffffffffffffffffffff1673ffffffffffffffffffffffffffffffffffffffff16815260200190815260200160002060008282546107239190610f67565b92505081905550816006600082825461073c9190610f67565b92505081905550600654905092915050565b6000600460008373ffffffffffffffffffffffffffffffffffffffff1673ffffffffffffffffffffffffffffffffffffffff168152602001908152602001600020549050919050565b60025481565b600080546107aa9061106c565b80601f01602080910402602001604051908101604052809291908181526020018280546107d69061106c565b80156108235780601f106107f857610100808354040283529160200191610823565b820191906000526020600020905b81548152906001019060200180831161080657829003601f168201915b505050505081565b600180546108389061106c565b80601f01602080910402602001604051908101604052809291908181526020018280546108649061106c565b80156108b15780601f10610886576101008083540402835291602001916108b1565b820191906000526020600020905b81548152906001019060200180831161089457829003601f168201915b505050505081565b6000600360009054906101000a900473ffffffffffffffffffffffffffffffffffffffff1673ffffffffffffffffffffffffffffffffffffffff163373ffffffffffffffffffffffffffffffffffffffff161461094b576040517f08c379a000000000000000000000000000000000000000000000000000000000815260040161094290610f10565b60405180910390fd5b6109dc8383600560003373ffffffffffffffffffffffffffffffffffffffff1673ffffffffffffffffffffffffffffffffffffffff16815260200190815260200160002060008773ffffffffffffffffffffffffffffffffffffffff1673ffffffffffffffffffffffffffffffffffffffff168152602001908152602001600020546109d79190610fbd565b6102e8565b506001905092915050565b600081600460003373ffffffffffffffffffffffffffffffffffffffff1673ffffffffffffffffffffffffffffffffffffffff168152602001908152602001600020541015610a3557600080fd5b81600460003373ffffffffffffffffffffffffffffffffffffffff1673ffffffffffffffffffffffffffffffffffffffff1681526020019081526020016000206000828254610a849190610fbd565b9250508190555081600460008573ffffffffffffffffffffffffffffffffffffffff1673ffffffffffffffffffffffffffffffffffffffff1681526020019081526020016000206000828254610ada9190610f67565b925050819055506001905092915050565b6000600560008473ffffffffffffffffffffffffffffffffffffffff1673ffffffffffffffffffffffffffffffffffffffff16815260200190815260200160002060008373ffffffffffffffffffffffffffffffffffffffff1673ffffffffffffffffffffffffffffffffffffffff16815260200190815260200160002054905092915050565b600360009054906101000a900473ffffffffffffffffffffffffffffffffffffffff1673ffffffffffffffffffffffffffffffffffffffff163373ffffffffffffffffffffffffffffffffffffffff1614610c02576040517f08c379a0000000000000000000000000000000000000000000000000000000008152600401610bf990610f10565b60405180910390fd5b600073ffffffffffffffffffffffffffffffffffffffff168173ffffffffffffffffffffffffffffffffffffffff161415610c3c57600080fd5b8073ffffffffffffffffffffffffffffffffffffffff16600360009054906101000a900473ffffffffffffffffffffffffffffffffffffffff1673ffffffffffffffffffffffffffffffffffffffff167f8be0079c531659141344cd1fd0a4f28419497f9722a3daafe3b4186f6b6457e060405160405180910390a380600360006101000a81548173ffffffffffffffffffffffffffffffffffffffff021916908373ffffffffffffffffffffffffffffffffffffffff16021790555050565b600081359050610d0b8161110d565b92915050565b600081359050610d2081611124565b92915050565b600060208284031215610d3857600080fd5b6000610d4684828501610cfc565b91505092915050565b60008060408385031215610d6257600080fd5b6000610d7085828601610cfc565b9250506020610d8185828601610cfc565b9150509250929050565b600080600060608486031215610da057600080fd5b6000610dae86828701610cfc565b9350506020610dbf86828701610cfc565b9250506040610dd086828701610d11565b9150509250925092565b60008060408385031215610ded57600080fd5b6000610dfb85828601610cfc565b9250506020610e0c85828601610d11565b9150509250929050565b610e1f81611003565b82525050565b6000610e3082610f4b565b610e3a8185610f56565b9350610e4a818560208601611039565b610e53816110fc565b840191505092915050565b6000610e6b602383610f56565b91507f6f6e6c792041646d696e2063616e207265756e20746869732066756e6374696f60008301527f6e212100000000000000000000000000000000000000000000000000000000006020830152604082019050919050565b610ecd8161102f565b82525050565b6000602082019050610ee86000830184610e16565b92915050565b60006020820190508181036000830152610f088184610e25565b905092915050565b60006020820190508181036000830152610f2981610e5e565b9050919050565b6000602082019050610f456000830184610ec4565b92915050565b600081519050919050565b600082825260208201905092915050565b6000610f728261102f565b9150610f7d8361102f565b9250827fffffffffffffffffffffffffffffffffffffffffffffffffffffffffffffffff03821115610fb257610fb161109e565b5b828201905092915050565b6000610fc88261102f565b9150610fd38361102f565b925082821015610fe657610fe561109e565b5b828203905092915050565b6000610ffc8261100f565b9050919050565b60008115159050919050565b600073ffffffffffffffffffffffffffffffffffffffff82169050919050565b6000819050919050565b60005b8381101561105757808201518184015260208101905061103c565b83811115611066576000848401525b50505050565b6000600282049050600182168061108457607f821691505b60208210811415611098576110976110cd565b5b50919050565b7f4e487b7100000000000000000000000000000000000000000000000000000000600052601160045260246000fd5b7f4e487b7100000000000000000000000000000000000000000000000000000000600052602260045260246000fd5b6000601f19601f8301169050919050565b61111681610ff1565b811461112157600080fd5b50565b61112d8161102f565b811461113857600080fd5b5056fea2646970667358221220028278c24dd25124c0a069946e2798708c5ff8fc3f3617acb6955b9775b4ff3e64736f6c63430008000033",
  "linkReferences": {},
  "deployedLinkReferences": {}
}