{
  "_format": "hh-sol-artifact-1",
  "contractName": "sendNFT",
  "sourceName": "contracts/main.sol",
  "abi": [
    {
      "inputs": [
        {
          "internalType": "address",
          "name": "ERC721_",
          "type": "address"
        },
        {
          "internalType": "address",
          "name": "test1_",
          "type": "address"
        },
        {
          "internalType": "address",
          "name": "test2_",
          "type": "address"
        }
      ],
      "stateMutability": "nonpayable",
      "type": "constructor"
    },
    {
      "inputs": [
        {
          "internalType": "uint256",
          "name": "tok1",
          "type": "uint256"
        },
        {
          "internalType": "uint256",
          "name": "tok2",
          "type": "uint256"
        }
      ],
      "name": "getNFT",
      "outputs": [],
      "stateMutability": "nonpayable",
      "type": "function"
    },
    {
      "inputs": [],
      "name": "owner",
      "outputs": [
        {
          "internalType": "address",
          "name": "",
          "type": "address"
        }
      ],
      "stateMutability": "view",
      "type": "function"
    }
  ],
  "bytecode": "0x608060405234801561001057600080fd5b506040516108ae3803806108ae83398181016040528101906100329190610152565b826000806101000a81548173ffffffffffffffffffffffffffffffffffffffff021916908373ffffffffffffffffffffffffffffffffffffffff16021790555081600160006101000a81548173ffffffffffffffffffffffffffffffffffffffff021916908373ffffffffffffffffffffffffffffffffffffffff16021790555080600260006101000a81548173ffffffffffffffffffffffffffffffffffffffff021916908373ffffffffffffffffffffffffffffffffffffffff16021790555033600360006101000a81548173ffffffffffffffffffffffffffffffffffffffff021916908373ffffffffffffffffffffffffffffffffffffffff1602179055505050506101ea565b60008151905061014c816101d3565b92915050565b60008060006060848603121561016757600080fd5b60006101758682870161013d565b93505060206101868682870161013d565b92505060406101978682870161013d565b9150509250925092565b60006101ac826101b3565b9050919050565b600073ffffffffffffffffffffffffffffffffffffffff82169050919050565b6101dc816101a1565b81146101e757600080fd5b50565b6106b5806101f96000396000f3fe608060405234801561001057600080fd5b50600436106100365760003560e01c80638da5cb5b1461003b578063d937784814610059575b600080fd5b610043610075565b6040516100509190610518565b60405180910390f35b610073600480360381019061006e91906103c9565b61009b565b005b600360009054906101000a900473ffffffffffffffffffffffffffffffffffffffff1681565b606482146100de576040517f08c379a00000000000000000000000000000000000000000000000000000000081526004016100d5906105a6565b60405180910390fd5b60c88114610121576040517f08c379a0000000000000000000000000000000000000000000000000000000008152600401610118906105c6565b60405180910390fd5b600160009054906101000a900473ffffffffffffffffffffffffffffffffffffffff1673ffffffffffffffffffffffffffffffffffffffff166323b872dd3330856040518463ffffffff1660e01b815260040161018093929190610533565b602060405180830381600087803b15801561019a57600080fd5b505af11580156101ae573d6000803e3d6000fd5b505050506040513d601f19601f820116820180604052508101906101d29190610377565b50600260009054906101000a900473ffffffffffffffffffffffffffffffffffffffff1673ffffffffffffffffffffffffffffffffffffffff166323b872dd3330846040518463ffffffff1660e01b815260040161023293929190610533565b602060405180830381600087803b15801561024c57600080fd5b505af1158015610260573d6000803e3d6000fd5b505050506040513d601f19601f820116820180604052508101906102849190610377565b5060008054906101000a900473ffffffffffffffffffffffffffffffffffffffff1673ffffffffffffffffffffffffffffffffffffffff1663ba7aef433360016040518363ffffffff1660e01b81526004016102e192919061056a565b602060405180830381600087803b1580156102fb57600080fd5b505af115801561030f573d6000803e3d6000fd5b505050506040513d601f19601f8201168201806040525081019061033391906103a0565b505050565b60008151905061034781610651565b92915050565b60008135905061035c81610668565b92915050565b60008151905061037181610668565b92915050565b60006020828403121561038957600080fd5b600061039784828501610338565b91505092915050565b6000602082840312156103b257600080fd5b60006103c084828501610362565b91505092915050565b600080604083850312156103dc57600080fd5b60006103ea8582860161034d565b92505060206103fb8582860161034d565b9150509250929050565b61040e816105f7565b82525050565b61041d8161063f565b82525050565b6000610430602b836105e6565b91507f73656e642065786163742031303020657263323020746f6b656e7320666f722060008301527f3120726f626f74204e46540000000000000000000000000000000000000000006020830152604082019050919050565b60006104966000836105e6565b9150600082019050919050565b60006104b0602b836105e6565b91507f73656e642065786163742032303020657263323020746f6b656e7320666f722060008301527f3120726f626f74204e46540000000000000000000000000000000000000000006020830152604082019050919050565b61051281610635565b82525050565b600060208201905061052d6000830184610405565b92915050565b60006060820190506105486000830186610405565b6105556020830185610405565b6105626040830184610509565b949350505050565b600060608201905061057f6000830185610405565b818103602083015261059081610489565b905061059f6040830184610414565b9392505050565b600060208201905081810360008301526105bf81610423565b9050919050565b600060208201905081810360008301526105df816104a3565b9050919050565b600082825260208201905092915050565b600061060282610615565b9050919050565b60008115159050919050565b600073ffffffffffffffffffffffffffffffffffffffff82169050919050565b6000819050919050565b600061064a82610635565b9050919050565b61065a81610609565b811461066557600080fd5b50565b61067181610635565b811461067c57600080fd5b5056fea2646970667358221220479564a760b60f26350ecb8a9a1add021e24212e1742ab9dc76871868cffde8864736f6c63430008000033",
  "linkReferences": {},
  "deployedLinkReferences": {}
}