{
  "_format": "hh-sol-artifact-1",
  "contractName": "sendNFT",
  "sourceName": "contracts/main.sol",
  "abi": [
    {
      "inputs": [
        {
          "internalType": "address",
          "name": "ERC721_",
          "type": "address"
        },
        {
          "internalType": "address",
          "name": "test1_",
          "type": "address"
        },
        {
          "internalType": "address",
          "name": "test2_",
          "type": "address"
        }
      ],
      "stateMutability": "nonpayable",
      "type": "constructor"
    },
    {
      "inputs": [
        {
          "internalType": "uint256",
          "name": "tok1",
          "type": "uint256"
        },
        {
          "internalType": "uint256",
          "name": "tok2",
          "type": "uint256"
        }
      ],
      "name": "getNFT",
      "outputs": [],
      "stateMutability": "nonpayable",
      "type": "function"
    },
    {
      "inputs": [],
      "name": "owner",
      "outputs": [
        {
          "internalType": "address",
          "name": "",
          "type": "address"
        }
      ],
      "stateMutability": "view",
      "type": "function"
    }
  ],
  "bytecode": "0x608060405234801561001057600080fd5b5060405161085e38038061085e83398181016040528101906100329190610152565b826000806101000a81548173ffffffffffffffffffffffffffffffffffffffff021916908373ffffffffffffffffffffffffffffffffffffffff16021790555081600160006101000a81548173ffffffffffffffffffffffffffffffffffffffff021916908373ffffffffffffffffffffffffffffffffffffffff16021790555080600260006101000a81548173ffffffffffffffffffffffffffffffffffffffff021916908373ffffffffffffffffffffffffffffffffffffffff16021790555033600360006101000a81548173ffffffffffffffffffffffffffffffffffffffff021916908373ffffffffffffffffffffffffffffffffffffffff1602179055505050506101ea565b60008151905061014c816101d3565b92915050565b60008060006060848603121561016757600080fd5b60006101758682870161013d565b93505060206101868682870161013d565b92505060406101978682870161013d565b9150509250925092565b60006101ac826101b3565b9050919050565b600073ffffffffffffffffffffffffffffffffffffffff82169050919050565b6101dc816101a1565b81146101e757600080fd5b50565b610665806101f96000396000f3fe608060405234801561001057600080fd5b50600436106100365760003560e01c80638da5cb5b1461003b578063d937784814610059575b600080fd5b610043610075565b60405161005091906104f9565b60405180910390f35b610073600480360381019061006e91906103aa565b61009b565b005b600360009054906101000a900473ffffffffffffffffffffffffffffffffffffffff1681565b606482146100de576040517f08c379a00000000000000000000000000000000000000000000000000000000081526004016100d590610579565b60405180910390fd5b60c88114610121576040517f08c379a000000000000000000000000000000000000000000000000000000000815260040161011890610599565b60405180910390fd5b600160009054906101000a900473ffffffffffffffffffffffffffffffffffffffff1673ffffffffffffffffffffffffffffffffffffffff16634e6ec247600360009054906101000a900473ffffffffffffffffffffffffffffffffffffffff16846040518363ffffffff1660e01b81526004016101a0929190610550565b600060405180830381600087803b1580156101ba57600080fd5b505af11580156101ce573d6000803e3d6000fd5b50505050600260009054906101000a900473ffffffffffffffffffffffffffffffffffffffff1673ffffffffffffffffffffffffffffffffffffffff166340c10f19600360009054906101000a900473ffffffffffffffffffffffffffffffffffffffff16836040518363ffffffff1660e01b8152600401610251929190610550565b602060405180830381600087803b15801561026b57600080fd5b505af115801561027f573d6000803e3d6000fd5b505050506040513d601f19601f820116820180604052508101906102a39190610381565b5060008054906101000a900473ffffffffffffffffffffffffffffffffffffffff1673ffffffffffffffffffffffffffffffffffffffff1663ba7aef433360016040518363ffffffff1660e01b8152600401610300929190610514565b602060405180830381600087803b15801561031a57600080fd5b505af115801561032e573d6000803e3d6000fd5b505050506040513d601f19601f820116820180604052508101906103529190610381565b505050565b60008135905061036681610618565b92915050565b60008151905061037b81610618565b92915050565b60006020828403121561039357600080fd5b60006103a18482850161036c565b91505092915050565b600080604083850312156103bd57600080fd5b60006103cb85828601610357565b92505060206103dc85828601610357565b9150509250929050565b6103ef816105ca565b82525050565b6103fe81610606565b82525050565b6000610411602b836105b9565b91507f73656e642065786163742031303020657263323020746f6b656e7320666f722060008301527f3120726f626f74204e46540000000000000000000000000000000000000000006020830152604082019050919050565b60006104776000836105b9565b9150600082019050919050565b6000610491602b836105b9565b91507f73656e642065786163742032303020657263323020746f6b656e7320666f722060008301527f3120726f626f74204e46540000000000000000000000000000000000000000006020830152604082019050919050565b6104f3816105fc565b82525050565b600060208201905061050e60008301846103e6565b92915050565b600060608201905061052960008301856103e6565b818103602083015261053a8161046a565b905061054960408301846103f5565b9392505050565b600060408201905061056560008301856103e6565b61057260208301846104ea565b9392505050565b6000602082019050818103600083015261059281610404565b9050919050565b600060208201905081810360008301526105b281610484565b9050919050565b600082825260208201905092915050565b60006105d5826105dc565b9050919050565b600073ffffffffffffffffffffffffffffffffffffffff82169050919050565b6000819050919050565b6000610611826105fc565b9050919050565b610621816105fc565b811461062c57600080fd5b5056fea2646970667358221220000ea0e635eac45ca5d5d716d03e2d08364e846f3ed1b8e0ca97ec30a1100e0264736f6c63430008000033",
  "linkReferences": {},
  "deployedLinkReferences": {}
}