{
  "_format": "hh-sol-artifact-1",
  "contractName": "myERC721",
  "sourceName": "contracts/robot.sol",
  "abi": [
    {
      "inputs": [],
      "stateMutability": "nonpayable",
      "type": "constructor"
    },
    {
      "anonymous": false,
      "inputs": [
        {
          "indexed": true,
          "internalType": "address",
          "name": "previousOwner",
          "type": "address"
        },
        {
          "indexed": true,
          "internalType": "address",
          "name": "newOwner",
          "type": "address"
        }
      ],
      "name": "OwnershipTransferred",
      "type": "event"
    },
    {
      "inputs": [],
      "name": "admin_",
      "outputs": [
        {
          "internalType": "address",
          "name": "",
          "type": "address"
        }
      ],
      "stateMutability": "view",
      "type": "function"
    },
    {
      "inputs": [
        {
          "internalType": "address",
          "name": "_to",
          "type": "address"
        },
        {
          "internalType": "uint256",
          "name": "_tokenId",
          "type": "uint256"
        }
      ],
      "name": "approve",
      "outputs": [],
      "stateMutability": "nonpayable",
      "type": "function"
    },
    {
      "inputs": [
        {
          "internalType": "address",
          "name": "_owner",
          "type": "address"
        }
      ],
      "name": "balanceOf",
      "outputs": [
        {
          "internalType": "uint256",
          "name": "",
          "type": "uint256"
        }
      ],
      "stateMutability": "view",
      "type": "function"
    },
    {
      "inputs": [
        {
          "internalType": "uint256",
          "name": "_tokenId",
          "type": "uint256"
        }
      ],
      "name": "exists",
      "outputs": [
        {
          "internalType": "bool",
          "name": "",
          "type": "bool"
        }
      ],
      "stateMutability": "view",
      "type": "function"
    },
    {
      "inputs": [
        {
          "internalType": "address",
          "name": "recipient",
          "type": "address"
        },
        {
          "internalType": "string",
          "name": "uri",
          "type": "string"
        },
        {
          "internalType": "uint256",
          "name": "amount",
          "type": "uint256"
        }
      ],
      "name": "mint",
      "outputs": [
        {
          "internalType": "uint256",
          "name": "",
          "type": "uint256"
        }
      ],
      "stateMutability": "nonpayable",
      "type": "function"
    },
    {
      "inputs": [
        {
          "internalType": "address",
          "name": "account",
          "type": "address"
        },
        {
          "internalType": "uint256",
          "name": "_tokenId",
          "type": "uint256"
        },
        {
          "internalType": "uint256",
          "name": "amount",
          "type": "uint256"
        }
      ],
      "name": "mint_",
      "outputs": [],
      "stateMutability": "nonpayable",
      "type": "function"
    },
    {
      "inputs": [],
      "name": "name",
      "outputs": [
        {
          "internalType": "string",
          "name": "",
          "type": "string"
        }
      ],
      "stateMutability": "view",
      "type": "function"
    },
    {
      "inputs": [
        {
          "internalType": "uint256",
          "name": "_tokenId",
          "type": "uint256"
        }
      ],
      "name": "ownerOf",
      "outputs": [
        {
          "internalType": "address",
          "name": "",
          "type": "address"
        }
      ],
      "stateMutability": "view",
      "type": "function"
    },
    {
      "inputs": [],
      "name": "symbol",
      "outputs": [
        {
          "internalType": "string",
          "name": "",
          "type": "string"
        }
      ],
      "stateMutability": "view",
      "type": "function"
    },
    {
      "inputs": [
        {
          "internalType": "uint256",
          "name": "_tokenId",
          "type": "uint256"
        }
      ],
      "name": "takeOwnerShip",
      "outputs": [],
      "stateMutability": "nonpayable",
      "type": "function"
    },
    {
      "inputs": [],
      "name": "totalTokens",
      "outputs": [
        {
          "internalType": "uint256",
          "name": "tokens",
          "type": "uint256"
        }
      ],
      "stateMutability": "view",
      "type": "function"
    },
    {
      "inputs": [
        {
          "internalType": "address",
          "name": "_from",
          "type": "address"
        },
        {
          "internalType": "address",
          "name": "_to",
          "type": "address"
        },
        {
          "internalType": "uint256",
          "name": "_tokenId",
          "type": "uint256"
        }
      ],
      "name": "transfer",
      "outputs": [],
      "stateMutability": "nonpayable",
      "type": "function"
    },
    {
      "inputs": [
        {
          "internalType": "address",
          "name": "newOwner",
          "type": "address"
        }
      ],
      "name": "transferOwnership",
      "outputs": [],
      "stateMutability": "nonpayable",
      "type": "function"
    }
  ],
  "bytecode": "0x60806040523480156200001157600080fd5b506040518060400160405280600581526020017f526f626f74000000000000000000000000000000000000000000000000000000815250600090805190602001906200005f929190620000f5565b506040518060400160405280600681526020017f726f626f745f000000000000000000000000000000000000000000000000000081525060019080519060200190620000ad929190620000f5565b5033600360006101000a81548173ffffffffffffffffffffffffffffffffffffffff021916908373ffffffffffffffffffffffffffffffffffffffff1602179055506200020a565b8280546200010390620001a5565b90600052602060002090601f01602090048101928262000127576000855562000173565b82601f106200014257805160ff191683800117855562000173565b8280016001018555821562000173579182015b828111156200017257825182559160200191906001019062000155565b5b50905062000182919062000186565b5090565b5b80821115620001a157600081600090555060010162000187565b5090565b60006002820490506001821680620001be57607f821691505b60208210811415620001d557620001d4620001db565b5b50919050565b7f4e487b7100000000000000000000000000000000000000000000000000000000600052602260045260246000fd5b611361806200021a6000396000f3fe608060405234801561001057600080fd5b50600436106100cf5760003560e01c806395d89b411161008c578063beabacc811610066578063beabacc814610228578063c70383a514610244578063ceb67d2614610260578063f2fde38b1461027c576100cf565b806395d89b41146101bc578063a4baf750146101da578063ba7aef43146101f8576100cf565b806306fdde03146100d4578063095ea7b3146100f25780634f558e791461010e5780636352211e1461013e57806370a082311461016e5780637e1c0c091461019e575b600080fd5b6100dc610298565b6040516100e9919061103f565b60405180910390f35b61010c60048036038101906101079190610eaf565b61032a565b005b61012860048036038101906101239190610f3a565b610428565b6040516101359190611024565b60405180910390f35b61015860048036038101906101539190610f3a565b610494565b6040516101659190611009565b60405180910390f35b61018860048036038101906101839190610dd0565b6104d6565b6040516101959190611081565b60405180910390f35b6101a661051f565b6040516101b39190611081565b60405180910390f35b6101c4610529565b6040516101d1919061103f565b60405180910390f35b6101e26105bb565b6040516101ef9190611009565b60405180910390f35b610212600480360381019061020d9190610e48565b6105e1565b60405161021f9190611081565b60405180910390f35b610242600480360381019061023d9190610df9565b6106ab565b005b61025e60048036038101906102599190610f3a565b610822565b005b61027a60048036038101906102759190610eeb565b6109fa565b005b61029660048036038101906102919190610dd0565b610ac1565b005b6060600080546102a79061122d565b80601f01602080910402602001604051908101604052809291908181526020018280546102d39061122d565b80156103205780601f106102f557610100808354040283529160200191610320565b820191906000526020600020905b81548152906001019060200180831161030357829003601f168201915b5050505050905090565b61033381610494565b73ffffffffffffffffffffffffffffffffffffffff163373ffffffffffffffffffffffffffffffffffffffff161461036a57600080fd5b8173ffffffffffffffffffffffffffffffffffffffff163373ffffffffffffffffffffffffffffffffffffffff1614156103a357600080fd5b80600760003373ffffffffffffffffffffffffffffffffffffffff1673ffffffffffffffffffffffffffffffffffffffff16815260200190815260200160002060008473ffffffffffffffffffffffffffffffffffffffff1673ffffffffffffffffffffffffffffffffffffffff168152602001908152602001600020819055505050565b60008073ffffffffffffffffffffffffffffffffffffffff166006600084815260200190815260200160002060009054906101000a900473ffffffffffffffffffffffffffffffffffffffff1673ffffffffffffffffffffffffffffffffffffffff1614159050919050565b6000806006600084815260200190815260200160002060009054906101000a900473ffffffffffffffffffffffffffffffffffffffff16905080915050919050565b6000600560008373ffffffffffffffffffffffffffffffffffffffff1673ffffffffffffffffffffffffffffffffffffffff168152602001908152602001600020549050919050565b6000600254905090565b6060600180546105389061122d565b80601f01602080910402602001604051908101604052809291908181526020018280546105649061122d565b80156105b15780601f10610586576101008083540402835291602001916105b1565b820191906000526020600020905b81548152906001019060200180831161059457829003601f168201915b5050505050905090565b600360009054906101000a900473ffffffffffffffffffffffffffffffffffffffff1681565b6000600360009054906101000a900473ffffffffffffffffffffffffffffffffffffffff1673ffffffffffffffffffffffffffffffffffffffff163373ffffffffffffffffffffffffffffffffffffffff1614610673576040517f08c379a000000000000000000000000000000000000000000000000000000000815260040161066a90611061565b60405180910390fd5b61067d6004610c4b565b60006106896004610c61565b90506106968582856109fa565b6106a08185610c6f565b809150509392505050565b8173ffffffffffffffffffffffffffffffffffffffff168373ffffffffffffffffffffffffffffffffffffffff1614156106e457600080fd5b3373ffffffffffffffffffffffffffffffffffffffff168273ffffffffffffffffffffffffffffffffffffffff16141561071d57600080fd5b6001600560008573ffffffffffffffffffffffffffffffffffffffff1673ffffffffffffffffffffffffffffffffffffffff168152602001908152602001600020600082825461076d919061116f565b925050819055506001600560008473ffffffffffffffffffffffffffffffffffffffff1673ffffffffffffffffffffffffffffffffffffffff16815260200190815260200160002060008282546107c49190611119565b92505081905550816006600083815260200190815260200160002060006101000a81548173ffffffffffffffffffffffffffffffffffffffff021916908373ffffffffffffffffffffffffffffffffffffffff160217905550505050565b600061082d82610494565b905060003390508073ffffffffffffffffffffffffffffffffffffffff168273ffffffffffffffffffffffffffffffffffffffff16141561086d57600080fd5b82600760008473ffffffffffffffffffffffffffffffffffffffff1673ffffffffffffffffffffffffffffffffffffffff16815260200190815260200160002060008373ffffffffffffffffffffffffffffffffffffffff1673ffffffffffffffffffffffffffffffffffffffff16815260200190815260200160002054146108f557600080fd5b6001600560008473ffffffffffffffffffffffffffffffffffffffff1673ffffffffffffffffffffffffffffffffffffffff1681526020019081526020016000206000828254610945919061116f565b92505081905550806006600085815260200190815260200160002060006101000a81548173ffffffffffffffffffffffffffffffffffffffff021916908373ffffffffffffffffffffffffffffffffffffffff1602179055506001600560008373ffffffffffffffffffffffffffffffffffffffff1673ffffffffffffffffffffffffffffffffffffffff16815260200190815260200160002060008282546109ee9190611119565b92505081905550505050565b80600560008573ffffffffffffffffffffffffffffffffffffffff1673ffffffffffffffffffffffffffffffffffffffff1681526020019081526020016000206000828254610a499190611119565b92505081905550826006600084815260200190815260200160002060006101000a81548173ffffffffffffffffffffffffffffffffffffffff021916908373ffffffffffffffffffffffffffffffffffffffff160217905550600160026000828254610ab59190611119565b92505081905550505050565b600360009054906101000a900473ffffffffffffffffffffffffffffffffffffffff1673ffffffffffffffffffffffffffffffffffffffff163373ffffffffffffffffffffffffffffffffffffffff1614610b51576040517f08c379a0000000000000000000000000000000000000000000000000000000008152600401610b4890611061565b60405180910390fd5b600073ffffffffffffffffffffffffffffffffffffffff168173ffffffffffffffffffffffffffffffffffffffff161415610b8b57600080fd5b8073ffffffffffffffffffffffffffffffffffffffff16600360009054906101000a900473ffffffffffffffffffffffffffffffffffffffff1673ffffffffffffffffffffffffffffffffffffffff167f8be0079c531659141344cd1fd0a4f28419497f9722a3daafe3b4186f6b6457e060405160405180910390a380600360006101000a81548173ffffffffffffffffffffffffffffffffffffffff021916908373ffffffffffffffffffffffffffffffffffffffff16021790555050565b6001816000016000828254019250508190555050565b600081600001549050919050565b80600860008481526020019081526020016000209080519060200190610c96929190610c9b565b505050565b828054610ca79061122d565b90600052602060002090601f016020900481019282610cc95760008555610d10565b82601f10610ce257805160ff1916838001178555610d10565b82800160010185558215610d10579182015b82811115610d0f578251825591602001919060010190610cf4565b5b509050610d1d9190610d21565b5090565b5b80821115610d3a576000816000905550600101610d22565b5090565b6000610d51610d4c846110cd565b61109c565b905082815260208101848484011115610d6957600080fd5b610d748482856111eb565b509392505050565b600081359050610d8b816112fd565b92915050565b600082601f830112610da257600080fd5b8135610db2848260208601610d3e565b91505092915050565b600081359050610dca81611314565b92915050565b600060208284031215610de257600080fd5b6000610df084828501610d7c565b91505092915050565b600080600060608486031215610e0e57600080fd5b6000610e1c86828701610d7c565b9350506020610e2d86828701610d7c565b9250506040610e3e86828701610dbb565b9150509250925092565b600080600060608486031215610e5d57600080fd5b6000610e6b86828701610d7c565b935050602084013567ffffffffffffffff811115610e8857600080fd5b610e9486828701610d91565b9250506040610ea586828701610dbb565b9150509250925092565b60008060408385031215610ec257600080fd5b6000610ed085828601610d7c565b9250506020610ee185828601610dbb565b9150509250929050565b600080600060608486031215610f0057600080fd5b6000610f0e86828701610d7c565b9350506020610f1f86828701610dbb565b9250506040610f3086828701610dbb565b9150509250925092565b600060208284031215610f4c57600080fd5b6000610f5a84828501610dbb565b91505092915050565b610f6c816111a3565b82525050565b610f7b816111b5565b82525050565b6000610f8c826110fd565b610f968185611108565b9350610fa68185602086016111fa565b610faf816112ec565b840191505092915050565b6000610fc7600a83611108565b91507f6f6e6c792061646d696e000000000000000000000000000000000000000000006000830152602082019050919050565b611003816111e1565b82525050565b600060208201905061101e6000830184610f63565b92915050565b60006020820190506110396000830184610f72565b92915050565b600060208201905081810360008301526110598184610f81565b905092915050565b6000602082019050818103600083015261107a81610fba565b9050919050565b60006020820190506110966000830184610ffa565b92915050565b6000604051905081810181811067ffffffffffffffff821117156110c3576110c26112bd565b5b8060405250919050565b600067ffffffffffffffff8211156110e8576110e76112bd565b5b601f19601f8301169050602081019050919050565b600081519050919050565b600082825260208201905092915050565b6000611124826111e1565b915061112f836111e1565b9250827fffffffffffffffffffffffffffffffffffffffffffffffffffffffffffffffff038211156111645761116361125f565b5b828201905092915050565b600061117a826111e1565b9150611185836111e1565b9250828210156111985761119761125f565b5b828203905092915050565b60006111ae826111c1565b9050919050565b60008115159050919050565b600073ffffffffffffffffffffffffffffffffffffffff82169050919050565b6000819050919050565b82818337600083830152505050565b60005b838110156112185780820151818401526020810190506111fd565b83811115611227576000848401525b50505050565b6000600282049050600182168061124557607f821691505b602082108114156112595761125861128e565b5b50919050565b7f4e487b7100000000000000000000000000000000000000000000000000000000600052601160045260246000fd5b7f4e487b7100000000000000000000000000000000000000000000000000000000600052602260045260246000fd5b7f4e487b7100000000000000000000000000000000000000000000000000000000600052604160045260246000fd5b6000601f19601f8301169050919050565b611306816111a3565b811461131157600080fd5b50565b61131d816111e1565b811461132857600080fd5b5056fea2646970667358221220365ecf365769ae4cf360736674d414f5ad4d29363c2791449313594181db0fd064736f6c63430008000033",
  "linkReferences": {},
  "deployedLinkReferences": {}
}